{
  "contractName": "Project",
  "abi": [
    {
      "inputs": [
        {
          "internalType": "address payable",
          "name": "projectStarter",
          "type": "address"
        },
        {
          "internalType": "string",
          "name": "projectTitle",
          "type": "string"
        },
        {
          "internalType": "string",
          "name": "projectDesc",
          "type": "string"
        },
        {
          "internalType": "uint256",
          "name": "fundRaisingDeadline",
          "type": "uint256"
        },
        {
          "internalType": "uint256",
          "name": "goalAmount",
          "type": "uint256"
        },
        {
          "internalType": "string",
          "name": "projectImage",
          "type": "string"
        },
        {
          "internalType": "uint256",
          "name": "projectRentability",
          "type": "uint256"
        },
        {
          "internalType": "uint256",
          "name": "minimalInvestment",
          "type": "uint256"
        }
      ],
      "payable": false,
      "stateMutability": "nonpayable",
      "type": "constructor"
    },
    {
      "anonymous": false,
      "inputs": [
        {
          "indexed": false,
          "internalType": "address",
          "name": "recipient",
          "type": "address"
        },
        {
          "indexed": false,
          "internalType": "uint256",
          "name": "value",
          "type": "uint256"
        }
      ],
      "name": "CreatorPaid",
      "type": "event"
    },
    {
      "anonymous": false,
      "inputs": [
        {
          "indexed": false,
          "internalType": "address",
          "name": "contributor",
          "type": "address"
        },
        {
          "indexed": false,
          "internalType": "uint256",
          "name": "amount",
          "type": "uint256"
        },
        {
          "indexed": false,
          "internalType": "uint256",
          "name": "currentTotal",
          "type": "uint256"
        }
      ],
      "name": "FundingReceived",
      "type": "event"
    },
    {
      "constant": true,
      "inputs": [],
      "name": "amountGoal",
      "outputs": [
        {
          "internalType": "uint256",
          "name": "",
          "type": "uint256"
        }
      ],
      "payable": false,
      "stateMutability": "view",
      "type": "function"
    },
    {
      "constant": true,
      "inputs": [],
      "name": "completeAt",
      "outputs": [
        {
          "internalType": "uint256",
          "name": "",
          "type": "uint256"
        }
      ],
      "payable": false,
      "stateMutability": "view",
      "type": "function"
    },
    {
      "constant": true,
      "inputs": [
        {
          "internalType": "address",
          "name": "",
          "type": "address"
        }
      ],
      "name": "contributions",
      "outputs": [
        {
          "internalType": "uint256",
          "name": "",
          "type": "uint256"
        }
      ],
      "payable": false,
      "stateMutability": "view",
      "type": "function"
    },
    {
      "constant": true,
      "inputs": [],
      "name": "creator",
      "outputs": [
        {
          "internalType": "address payable",
          "name": "",
          "type": "address"
        }
      ],
      "payable": false,
      "stateMutability": "view",
      "type": "function"
    },
    {
      "constant": true,
      "inputs": [],
      "name": "currentBalance",
      "outputs": [
        {
          "internalType": "uint256",
          "name": "",
          "type": "uint256"
        }
      ],
      "payable": false,
      "stateMutability": "view",
      "type": "function"
    },
    {
      "constant": true,
      "inputs": [],
      "name": "description",
      "outputs": [
        {
          "internalType": "string",
          "name": "",
          "type": "string"
        }
      ],
      "payable": false,
      "stateMutability": "view",
      "type": "function"
    },
    {
      "constant": true,
      "inputs": [],
      "name": "image",
      "outputs": [
        {
          "internalType": "string",
          "name": "",
          "type": "string"
        }
      ],
      "payable": false,
      "stateMutability": "view",
      "type": "function"
    },
    {
      "constant": true,
      "inputs": [],
      "name": "minInvestment",
      "outputs": [
        {
          "internalType": "uint256",
          "name": "",
          "type": "uint256"
        }
      ],
      "payable": false,
      "stateMutability": "view",
      "type": "function"
    },
    {
      "constant": true,
      "inputs": [],
      "name": "raiseBy",
      "outputs": [
        {
          "internalType": "uint256",
          "name": "",
          "type": "uint256"
        }
      ],
      "payable": false,
      "stateMutability": "view",
      "type": "function"
    },
    {
      "constant": true,
      "inputs": [],
      "name": "rentability",
      "outputs": [
        {
          "internalType": "uint256",
          "name": "",
          "type": "uint256"
        }
      ],
      "payable": false,
      "stateMutability": "view",
      "type": "function"
    },
    {
      "constant": true,
      "inputs": [],
      "name": "state",
      "outputs": [
        {
          "internalType": "enum Project.State",
          "name": "",
          "type": "uint8"
        }
      ],
      "payable": false,
      "stateMutability": "view",
      "type": "function"
    },
    {
      "constant": true,
      "inputs": [],
      "name": "title",
      "outputs": [
        {
          "internalType": "string",
          "name": "",
          "type": "string"
        }
      ],
      "payable": false,
      "stateMutability": "view",
      "type": "function"
    },
    {
      "constant": false,
      "inputs": [],
      "name": "contribute",
      "outputs": [],
      "payable": true,
      "stateMutability": "payable",
      "type": "function"
    },
    {
      "constant": false,
      "inputs": [],
      "name": "checkIfFundingCompleteOrExpired",
      "outputs": [],
      "payable": false,
      "stateMutability": "nonpayable",
      "type": "function"
    },
    {
      "constant": false,
      "inputs": [],
      "name": "getRefund",
      "outputs": [
        {
          "internalType": "bool",
          "name": "",
          "type": "bool"
        }
      ],
      "payable": false,
      "stateMutability": "nonpayable",
      "type": "function"
    },
    {
      "constant": true,
      "inputs": [],
      "name": "isRequestsClosed",
      "outputs": [
        {
          "internalType": "bool",
          "name": "",
          "type": "bool"
        }
      ],
      "payable": false,
      "stateMutability": "view",
      "type": "function"
    },
    {
      "constant": false,
      "inputs": [
        {
          "internalType": "string",
          "name": "reqDescription",
          "type": "string"
        },
        {
          "internalType": "uint256",
          "name": "reqValue",
          "type": "uint256"
        }
      ],
      "name": "createRequest",
      "outputs": [
        {
          "internalType": "bool",
          "name": "stat",
          "type": "bool"
        }
      ],
      "payable": false,
      "stateMutability": "nonpayable",
      "type": "function"
    },
    {
      "constant": false,
      "inputs": [],
      "name": "approveRequest",
      "outputs": [],
      "payable": false,
      "stateMutability": "nonpayable",
      "type": "function"
    },
    {
      "constant": true,
      "inputs": [],
      "name": "getDetails",
      "outputs": [
        {
          "internalType": "address payable",
          "name": "projectStarter",
          "type": "address"
        },
        {
          "internalType": "string",
          "name": "projectTitle",
          "type": "string"
        },
        {
          "internalType": "string",
          "name": "projectDesc",
          "type": "string"
        },
        {
          "internalType": "uint256",
          "name": "deadline",
          "type": "uint256"
        },
        {
          "internalType": "enum Project.State",
          "name": "currentState",
          "type": "uint8"
        },
        {
          "internalType": "uint256",
          "name": "currentAmount",
          "type": "uint256"
        },
        {
          "internalType": "uint256",
          "name": "goalAmount",
          "type": "uint256"
        },
        {
          "internalType": "string",
          "name": "projectImage",
          "type": "string"
        },
        {
          "internalType": "uint256",
          "name": "projectRentability",
          "type": "uint256"
        },
        {
          "internalType": "uint256",
          "name": "minimalInvestment",
          "type": "uint256"
        },
        {
          "internalType": "uint256",
          "name": "requestValue",
          "type": "uint256"
        },
        {
          "internalType": "uint256",
          "name": "approvalsCount",
          "type": "uint256"
        }
      ],
      "payable": false,
      "stateMutability": "view",
      "type": "function"
    },
    {
      "constant": true,
      "inputs": [],
      "name": "getApprovals",
      "outputs": [
        {
          "internalType": "bool",
          "name": "approvedRequest",
          "type": "bool"
        }
      ],
      "payable": false,
      "stateMutability": "view",
      "type": "function"
    }
  ],
  "bytecode": "0x60806040526000600b60006101000a81548160ff021916908360028111156200002457fe5b02179055503480156200003657600080fd5b5060405162001b4a38038062001b4a83398181016040526200005c919081019062000253565b87600160006101000a81548173ffffffffffffffffffffffffffffffffffffffff021916908373ffffffffffffffffffffffffffffffffffffffff1602179055508660069080519060200190620000b59291906200011a565b508560079080519060200190620000ce9291906200011a565b50836002819055508460058190555060006004819055508260089080519060200190620000fd9291906200011a565b508160098190555080600a81905550505050505050505062000464565b828054600181600116156101000203166002900490600052602060002090601f016020900481019282601f106200015d57805160ff19168380011785556200018e565b828001600101855582156200018e579182015b828111156200018d57825182559160200191906001019062000170565b5b5090506200019d9190620001a1565b5090565b620001c691905b80821115620001c2576000816000905550600101620001a8565b5090565b90565b600081519050620001da8162000430565b92915050565b600082601f830112620001f257600080fd5b81516200020962000203826200038f565b62000361565b915080825260208301602083018583830111156200022657600080fd5b62000233838284620003fa565b50505092915050565b6000815190506200024d816200044a565b92915050565b600080600080600080600080610100898b0312156200027157600080fd5b6000620002818b828c01620001c9565b985050602089015167ffffffffffffffff8111156200029f57600080fd5b620002ad8b828c01620001e0565b975050604089015167ffffffffffffffff811115620002cb57600080fd5b620002d98b828c01620001e0565b9650506060620002ec8b828c016200023c565b9550506080620002ff8b828c016200023c565b94505060a089015167ffffffffffffffff8111156200031d57600080fd5b6200032b8b828c01620001e0565b93505060c06200033e8b828c016200023c565b92505060e0620003518b828c016200023c565b9150509295985092959890939650565b6000604051905081810181811067ffffffffffffffff821117156200038557600080fd5b8060405250919050565b600067ffffffffffffffff821115620003a757600080fd5b601f19601f8301169050602081019050919050565b6000620003c982620003d0565b9050919050565b600073ffffffffffffffffffffffffffffffffffffffff82169050919050565b6000819050919050565b60005b838110156200041a578082015181840152602081019050620003fd565b838111156200042a576000848401525b50505050565b6200043b81620003bc565b81146200044757600080fd5b50565b6200045581620003f0565b81146200046157600080fd5b50565b6116d680620004746000396000f3fe60806040526004361061011f5760003560e01c806386f32586116100a0578063ce845d1d11610064578063ce845d1d146103a5578063d7bb99ba146103d0578063d926fe34146103da578063f3ccaac014610405578063fbbf93a0146104305761011f565b806386f32586146102d05780638ac2c680146102e7578063aa6e90c014610312578063b2d5ae441461034f578063c19d93fb1461037a5761011f565b80634a79d50c116100e75780634a79d50c146101f95780634c4cea5a146102245780635fa42fbd1461024f578063603a85381461027a5780637284e416146102a55761011f565b806302d05d3f146101245780630785001c1461014f578063263b81c91461017a57806337f944cc1461019157806342e94c90146101bc575b600080fd5b34801561013057600080fd5b50610139610466565b6040516101469190611313565b60405180910390f35b34801561015b57600080fd5b5061016461048c565b60405161017191906114b5565b60405180910390f35b34801561018657600080fd5b5061018f610492565b005b34801561019d57600080fd5b506101a6610522565b6040516101b391906114b5565b60405180910390f35b3480156101c857600080fd5b506101e360048036036101de91908101906111d9565b610528565b6040516101f091906114b5565b60405180910390f35b34801561020557600080fd5b5061020e610540565b60405161021b9190611493565b60405180910390f35b34801561023057600080fd5b506102396105de565b60405161024691906114b5565b60405180910390f35b34801561025b57600080fd5b506102646105e4565b60405161027191906114b5565b60405180910390f35b34801561028657600080fd5b5061028f6105ea565b60405161029c919061145d565b60405180910390f35b3480156102b157600080fd5b506102ba610673565b6040516102c79190611493565b60405180910390f35b3480156102dc57600080fd5b506102e5610711565b005b3480156102f357600080fd5b506102fc610787565b60405161030991906114b5565b60405180910390f35b34801561031e57600080fd5b5061033960048036036103349190810190611202565b61078d565b604051610346919061145d565b60405180910390f35b34801561035b57600080fd5b5061036461084b565b604051610371919061145d565b60405180910390f35b34801561038657600080fd5b5061038f610a01565b60405161039c9190611478565b60405180910390f35b3480156103b157600080fd5b506103ba610a14565b6040516103c791906114b5565b60405180910390f35b6103d8610a1a565b005b3480156103e657600080fd5b506103ef610b45565b6040516103fc919061145d565b60405180910390f35b34801561041157600080fd5b5061041a610bb8565b6040516104279190611493565b60405180910390f35b34801561043c57600080fd5b50610445610c56565b60405161045d9c9b9a9998979695949392919061132e565b60405180910390f35b600160009054906101000a900473ffffffffffffffffffffffffffffffffffffffff1681565b60025481565b6000806000815481106104a157fe5b9060005260206000209060050201905060018160040160003373ffffffffffffffffffffffffffffffffffffffff1673ffffffffffffffffffffffffffffffffffffffff16815260200190815260200160002060006101000a81548160ff021916908315150217905550806003016000815480929190600101919050555050565b60055481565b600c6020528060005260406000206000915090505481565b60068054600181600116156101000203166002900480601f0160208091040260200160405190810160405280929190818152602001828054600181600116156101000203166002900480156105d65780601f106105ab576101008083540402835291602001916105d6565b820191906000526020600020905b8154815290600101906020018083116105b957829003601f168201915b505050505081565b60035481565b60095481565b6000809050600160008054905010610670576000808154811061060957fe5b906000526020600020906005020160040160003373ffffffffffffffffffffffffffffffffffffffff1673ffffffffffffffffffffffffffffffffffffffff16815260200190815260200160002060009054906101000a900460ff161561066f57600190505b5b90565b60078054600181600116156101000203166002900480601f0160208091040260200160405190810160405280929190818152602001828054600181600116156101000203166002900480156107095780601f106106de57610100808354040283529160200191610709565b820191906000526020600020905b8154815290600101906020018083116106ec57829003601f168201915b505050505081565b6002546004541061074e576002600b60006101000a81548160ff0219169083600281111561073b57fe5b0217905550610748610f0c565b5061077e565b60055442111561077d576001600b60006101000a81548160ff0219169083600281111561077757fe5b02179055505b5b42600381905550565b600a5481565b600061079761108c565b6040518060800160405280858152602001848152602001600015158152602001600081525090506000819080600181540180825580915050906001820390600052602060002090600502016000909192909190915060008201518160000190805190602001906108089291906110b6565b506020820151816001015560408201518160020160006101000a81548160ff02191690831515021790555060608201518160030155505050600191505092915050565b6000600180600281111561085b57fe5b600b60009054906101000a900460ff16600281111561087657fe5b1461088057600080fd5b6000600c60003373ffffffffffffffffffffffffffffffffffffffff1673ffffffffffffffffffffffffffffffffffffffff16815260200190815260200160002054116108cc57600080fd5b6000600c60003373ffffffffffffffffffffffffffffffffffffffff1673ffffffffffffffffffffffffffffffffffffffff1681526020019081526020016000205490506000600c60003373ffffffffffffffffffffffffffffffffffffffff1673ffffffffffffffffffffffffffffffffffffffff168152602001908152602001600020819055503373ffffffffffffffffffffffffffffffffffffffff166108fc829081150290604051600060405180830381858888f193505050506109dc5780600c60003373ffffffffffffffffffffffffffffffffffffffff1673ffffffffffffffffffffffffffffffffffffffff1681526020019081526020016000208190555060009250506109fd565b6109f18160045461105b90919063ffffffff16565b60048190555060019250505b5090565b600b60009054906101000a900460ff1681565b60045481565b6000806002811115610a2857fe5b600b60009054906101000a900460ff166002811115610a4357fe5b14610a4d57600080fd5b610a9f34600c60003373ffffffffffffffffffffffffffffffffffffffff1673ffffffffffffffffffffffffffffffffffffffff1681526020019081526020016000205461107290919063ffffffff16565b600c60003373ffffffffffffffffffffffffffffffffffffffff1673ffffffffffffffffffffffffffffffffffffffff16815260200190815260200160002081905550610af73460045461107290919063ffffffff16565b6004819055507f5cdc4ab8d637538ead6cc1904d4160343656c8c82bd266635cfd31ac008fffe03334600454604051610b3293929190611426565b60405180910390a1610b42610711565b50565b6000806000805490501415610b5d5760019050610bb5565b6000809050600080549050811015610bb35760008181548110610b7c57fe5b906000526020600020906005020160020160009054906101000a900460ff16610ba9576000915050610bb5565b6001915050610bb5565b505b90565b60088054600181600116156101000203166002900480601f016020809104026020016040519081016040528092919081815260200182805460018160011615610100020316600290048015610c4e5780601f10610c2357610100808354040283529160200191610c4e565b820191906000526020600020905b815481529060010190602001808311610c3157829003601f168201915b505050505081565b60006060806000806000806060600080600080600160009054906101000a900473ffffffffffffffffffffffffffffffffffffffff169b5060068054600181600116156101000203166002900480601f016020809104026020016040519081016040528092919081815260200182805460018160011615610100020316600290048015610d245780601f10610cf957610100808354040283529160200191610d24565b820191906000526020600020905b815481529060010190602001808311610d0757829003601f168201915b50505050509a5060078054600181600116156101000203166002900480601f016020809104026020016040519081016040528092919081815260200182805460018160011615610100020316600290048015610dc15780601f10610d9657610100808354040283529160200191610dc1565b820191906000526020600020905b815481529060010190602001808311610da457829003601f168201915b505050505099506005549850600b60009054906101000a900460ff1697506004549650600254955060088054600181600116156101000203166002900480601f016020809104026020016040519081016040528092919081815260200182805460018160011615610100020316600290048015610e7f5780601f10610e5457610100808354040283529160200191610e7f565b820191906000526020600020905b815481529060010190602001808311610e6257829003601f168201915b505050505094506009549350600a54925060016000805490501015610ea5576000610ec5565b60008081548110610eb257fe5b9060005260206000209060050201600101545b915060016000805490501015610edc576000610efc565b60008081548110610ee957fe5b9060005260206000209060050201600301545b9050909192939495969798999a9b565b60006002806002811115610f1c57fe5b600b60009054906101000a900460ff166002811115610f3757fe5b14610f4157600080fd5b6000600454905060006064601e830281610f5757fe5b049050600160009054906101000a900473ffffffffffffffffffffffffffffffffffffffff1673ffffffffffffffffffffffffffffffffffffffff166108fc829081150290604051600060405180830381858888f1935050505015611025577f14f433c13badc2239830ab3bb19e75dec63d39f851363844cc4e4650d0c9b601600160009054906101000a900473ffffffffffffffffffffffffffffffffffffffff16826040516110099291906113fd565b60405180910390a1808203600481905550600193505050611057565b816004819055506002600b60006101000a81548160ff0219169083600281111561104b57fe5b02179055506000935050505b5090565b60008282111561106757fe5b818303905092915050565b600081830190508281101561108357fe5b80905092915050565b60405180608001604052806060815260200160008152602001600015158152602001600081525090565b828054600181600116156101000203166002900490600052602060002090601f016020900481019282601f106110f757805160ff1916838001178555611125565b82800160010185558215611125579182015b82811115611124578251825591602001919060010190611109565b5b5090506111329190611136565b5090565b61115891905b8082111561115457600081600090555060010161113c565b5090565b90565b60008135905061116a81611665565b92915050565b600082601f83011261118157600080fd5b813561119461118f826114fd565b6114d0565b915080825260208301602083018583830111156111b057600080fd5b6111bb838284611605565b50505092915050565b6000813590506111d38161167c565b92915050565b6000602082840312156111eb57600080fd5b60006111f98482850161115b565b91505092915050565b6000806040838503121561121557600080fd5b600083013567ffffffffffffffff81111561122f57600080fd5b61123b85828601611170565b925050602061124c858286016111c4565b9150509250929050565b61125f816115bd565b82525050565b61126e81611562565b82525050565b61127d81611574565b82525050565b61128c816115cf565b82525050565b600061129d82611534565b6112a7818561153f565b93506112b7818560208601611614565b6112c081611647565b840191505092915050565b60006112d682611529565b6112e0818561153f565b93506112f0818560208601611614565b6112f981611647565b840191505092915050565b61130d816115b3565b82525050565b60006020820190506113286000830184611265565b92915050565b600061018082019050611344600083018f611265565b8181036020830152611356818e611292565b9050818103604083015261136a818d611292565b9050611379606083018c611304565b611386608083018b611283565b61139360a083018a611304565b6113a060c0830189611304565b81810360e08301526113b28188611292565b90506113c2610100830187611304565b6113d0610120830186611304565b6113de610140830185611304565b6113ec610160830184611304565b9d9c50505050505050505050505050565b60006040820190506114126000830185611256565b61141f6020830184611304565b9392505050565b600060608201905061143b6000830186611256565b6114486020830185611304565b6114556040830184611304565b949350505050565b60006020820190506114726000830184611274565b92915050565b600060208201905061148d6000830184611283565b92915050565b600060208201905081810360008301526114ad81846112cb565b905092915050565b60006020820190506114ca6000830184611304565b92915050565b6000604051905081810181811067ffffffffffffffff821117156114f357600080fd5b8060405250919050565b600067ffffffffffffffff82111561151457600080fd5b601f19601f8301169050602081019050919050565b600081519050919050565b600081519050919050565b600082825260208201905092915050565b600061155b82611593565b9050919050565b600061156d82611593565b9050919050565b60008115159050919050565b600081905061158e82611658565b919050565b600073ffffffffffffffffffffffffffffffffffffffff82169050919050565b6000819050919050565b60006115c8826115e1565b9050919050565b60006115da82611580565b9050919050565b60006115ec826115f3565b9050919050565b60006115fe82611593565b9050919050565b82818337600083830152505050565b60005b83811015611632578082015181840152602081019050611617565b83811115611641576000848401525b50505050565b6000601f19601f8301169050919050565b6003811061166257fe5b50565b61166e81611550565b811461167957600080fd5b50565b611685816115b3565b811461169057600080fd5b5056fea365627a7a72315820d3142516ecfc675fe0862e48aa385f87a3c24d9e183bef97b690715fedfc86546c6578706572696d656e74616cf564736f6c63430005100040",
  "source": "\n// We will be using Solidity version 0.5.4\n//pragma solidity ^0.5.0;\npragma experimental ABIEncoderV2;\n// Importing OpenZeppelin's SafeMath Implementation\n//import 'SafeMath.sol';\nimport \"./SafeMath.sol\";\n\n\ncontract Crowdfunding {\n    using SafeMath for uint256;\n\n    // List of existing projects\n    Project[] private projects;\n\n    // Event that will be emitted whenever a new project is started\n    event ProjectStarted(\n        address contractAddress,\n        address projectStarter,\n        string projectTitle,\n        string projectDesc,\n        uint256 deadline,\n        uint256 goalAmount,\n        string projectImage\n        //string projectRentability\n    );\n\n    /** @dev Function to start a new project.\n      * @param title Title of the project to be created\n      * @param description Brief description about the project\n      * @param durationInDays Project deadline in days\n      * @param amountToRaise Project goal in wei\n      * @param image Project Image\n      * @param rentability Project rentability\n      */\n    function startProject(\n        string calldata title,\n        string calldata description,\n        uint durationInDays,\n        uint amountToRaise,\n        string calldata image,\n        uint rentability,\n        uint minInvestment\n    ) external {\n        uint raiseUntil = now.add(durationInDays.mul(1 days));\n        Project newProject = new Project(msg.sender, title, description, raiseUntil, amountToRaise, image, rentability, minInvestment);\n        projects.push(newProject);\n        emit ProjectStarted(\n            address(newProject),\n            msg.sender,\n            title,\n            description,\n            raiseUntil,\n            amountToRaise,\n            image\n            //rentability\n        );\n    }                                                                                                                                   \n\n\n\n    /** @dev Function to get all projects' contract addresses.\n      * @return A list of all projects' contract addreses\n      */\n    function returnAllProjects() external view returns(Project[] memory){\n        return projects;\n    }\n\n      /** @dev Function to get all projects' contract addresses.\n      * @return A list of all projects' contract addreses\n      */\n    function returnMyOwnProjects() external view returns(Project[] memory){\n        //Project[] memory results;\n        //uint j = 0;\n       \n        //for(uint i = 0 ; i<projects.length; i++) {\n          //if( msg.sender == projects[i].creator()) {\n            //  results[j++] = projects[i];\n         //}\n        //}\n        //return results;\n        return projects;\n    }\n}\n\ncontract Project {\n    using SafeMath for uint256;\n    \n    // Data structures\n    enum State {\n        Fundraising,\n        Expired,\n        Successful\n    }\n\n    struct Request{\n        string description;\n        uint value;\n        //address recipient;\n        bool complete;\n        uint approvalCount;\n        mapping(address => bool) approvals;\n    }\n    \n    Request[] private requests;\n\n    // State variables\n    address payable public creator;\n    uint public amountGoal; // required to reach at least this much, else everyone gets refund\n    uint public completeAt;\n    uint256 public currentBalance;\n    uint public raiseBy;\n    string public title;\n    string public description;\n    string public image;\n    uint public rentability;\n    uint public minInvestment;\n    State public state = State.Fundraising; // initialize on create\n    mapping (address => uint) public contributions;\n\n    // Event that will be emitted whenever funding will be received\n    event FundingReceived(address contributor, uint amount, uint currentTotal);\n    // Event that will be emitted whenever the project starter has received the funds\n    event CreatorPaid(address recipient, uint value);\n\n    // Modifier to check current state\n    modifier inState(State _state) {\n        require(state == _state);\n        _;\n    }\n\n    // Modifier to check if the function caller is the project creator\n    modifier isCreator() {\n        require(msg.sender == creator);\n        _;\n    }\n\n    constructor\n    (\n        address payable projectStarter,\n        string memory projectTitle,\n        string memory projectDesc,\n        uint fundRaisingDeadline,\n        uint goalAmount,\n        string memory projectImage,\n        uint projectRentability,\n        uint minimalInvestment\n    ) public {\n        creator = projectStarter;\n        title = projectTitle;\n        description = projectDesc;\n        amountGoal = goalAmount;\n        raiseBy = fundRaisingDeadline;\n        currentBalance = 0;\n        image = projectImage;\n        rentability = projectRentability;\n        minInvestment = minimalInvestment;\n    }\n\n    /** @dev Function to fund a certain project.\n      */\n    function contribute() external inState(State.Fundraising) payable {\n        //require(msg.sender != creator);\n        contributions[msg.sender] = contributions[msg.sender].add(msg.value);\n        currentBalance = currentBalance.add(msg.value);\n        emit FundingReceived(msg.sender, msg.value, currentBalance);\n        checkIfFundingCompleteOrExpired();\n    }\n\n    /** @dev Function to change the project state depending on conditions.\n      */\n    function checkIfFundingCompleteOrExpired() public {\n        if (currentBalance >= amountGoal) {\n            state = State.Successful;\n            //payOut();\n            firstPayOut();\n        } else if (block.timestamp > raiseBy)  {\n            state = State.Expired;\n        }\n        completeAt = block.timestamp;\n    }\n\n    /** @dev Function to give the received funds to project starter.\n      */\n    function payOut() internal inState(State.Successful) returns (bool) {\n        uint256 totalRaised = currentBalance;\n        currentBalance = 0;\n\n        if (creator.send(totalRaised)) {\n            emit CreatorPaid(creator, totalRaised);\n            return true;\n        } else {\n            currentBalance = totalRaised;\n            state = State.Successful;\n        }\n\n        return false;\n    }\n\n     /** @dev Function to give the received funds to project starter.\n      */\n    function firstPayOut() internal inState(State.Successful) returns (bool) {\n        uint256 totalRaised = currentBalance;\n        uint256 amoutToSend = (totalRaised * 30)/100;\n\n        if (creator.send(amoutToSend)) {\n            emit CreatorPaid(creator, amoutToSend);\n            currentBalance = totalRaised - amoutToSend;\n            return true;\n        } else {\n            currentBalance = totalRaised;\n            state = State.Successful;\n        }\n\n        return false;\n    }\n\n\n    /** @dev Function to retrieve donated amount when a project expires.\n      */\n    function getRefund() public inState(State.Expired) returns (bool) {\n        require(contributions[msg.sender] > 0);\n\n        uint amountToRefund = contributions[msg.sender];\n        contributions[msg.sender] = 0;\n\n        if (!msg.sender.send(amountToRefund)) {\n            contributions[msg.sender] = amountToRefund;\n            return false;\n        } else {\n            currentBalance = currentBalance.sub(amountToRefund);\n        }\n\n        return true;\n    }\n\n\n    function isRequestsClosed() public view returns (bool) {\n        if(requests.length == 0) {\n            return true;\n        }\n\n        for(uint i = 0; i<requests.length; i++){\n            if(!requests[i].complete){\n              return false; //or whatever you want to do if it matches\n          }\n         else{\n               return true;\n             }\n         }\n       \n    }\n\n// Modifier to check if the function caller is the project creator\n    modifier isAllRequestsClosed() {\n        require(isRequestsClosed());\n        _;\n    }\n\n\n   //function createRequest(string calldata reqDescription, uint reqValue) external  {\n   function createRequest(string memory reqDescription, uint reqValue) public  returns (bool stat){\n        Request memory newRequest = Request({\n            description : reqDescription,\n            value: reqValue,\n            //recipient : recipient,\n            complete: false,\n            approvalCount: 0\n        });\n\n        requests.push(newRequest);\n        return true;\n    } \n\n    function approveRequest() public{\n        Request storage request = requests[0];\n        \n        //require(approvers[msg.sender]);\n        //require(!request.approvals[msg.sender]);\n        \n        request.approvals[msg.sender] = true;\n        request.approvalCount++;\n    }\n\n \n    function getDetails() public view returns \n    (\n        address payable projectStarter,\n        string memory projectTitle,\n        string memory projectDesc,\n        uint256 deadline,\n        State currentState,\n        uint256 currentAmount,\n        uint256 goalAmount,\n        string memory projectImage,\n        uint256 projectRentability,\n        uint256 minimalInvestment,\n        uint256 requestValue,\n        uint256 approvalsCount\n    ) {\n        projectStarter = creator;\n        projectTitle = title;\n        projectDesc = description;\n        deadline = raiseBy;\n        currentState = state;\n        currentAmount = currentBalance;\n        goalAmount = amountGoal;\n        projectImage = image;\n        projectRentability = rentability;\n        minimalInvestment = minInvestment;\n        requestValue = requests.length >= 1 ? requests[0].value : 0;\n        approvalsCount = requests.length >= 1 ? requests[0].approvalCount : 0;\n\n    }\n\n    function getApprovals() public view returns (\n         bool approvedRequest\n    )\n    {\n        approvedRequest = false;\n        if(requests.length >= 1) {\n            if (requests[0].approvals[msg.sender]){\n                approvedRequest = true;\n            }\n        }\n\n    }\n}",
  "sourcePath": "/Users/user1/Projects/blockchain/truffle/Crowdfunding-Project/contracts/Crowdfunding.sol",
  "compiler": {
    "name": "solc",
    "version": "0.5.16+commit.9c3226ce.Emscripten.clang"
  },
  "schemaVersion": "3.3.4",
  "updatedAt": "2021-04-12T04:23:03.668Z",
  "devdoc": {
    "methods": {
      "checkIfFundingCompleteOrExpired()": {
        "details": "Function to change the project state depending on conditions."
      },
      "contribute()": {
        "details": "Function to fund a certain project."
      },
      "getRefund()": {
        "details": "Function to retrieve donated amount when a project expires."
      }
    }
  },
  "userdoc": {
    "methods": {}
  }
}