{
  "contractName": "Project",
  "abi": [
    {
      "inputs": [
        {
          "internalType": "address payable",
          "name": "projectStarter",
          "type": "address"
        },
        {
          "internalType": "string",
          "name": "projectTitle",
          "type": "string"
        },
        {
          "internalType": "string",
          "name": "projectDesc",
          "type": "string"
        },
        {
          "internalType": "uint256",
          "name": "fundRaisingDeadline",
          "type": "uint256"
        },
        {
          "internalType": "uint256",
          "name": "goalAmount",
          "type": "uint256"
        },
        {
          "internalType": "string",
          "name": "projectImage",
          "type": "string"
        },
        {
          "internalType": "uint256",
          "name": "projectRentability",
          "type": "uint256"
        },
        {
          "internalType": "uint256",
          "name": "minimalInvestment",
          "type": "uint256"
        }
      ],
      "payable": false,
      "stateMutability": "nonpayable",
      "type": "constructor"
    },
    {
      "anonymous": false,
      "inputs": [
        {
          "indexed": false,
          "internalType": "address",
          "name": "recipient",
          "type": "address"
        }
      ],
      "name": "CreatorPaid",
      "type": "event"
    },
    {
      "anonymous": false,
      "inputs": [
        {
          "indexed": false,
          "internalType": "address",
          "name": "contributor",
          "type": "address"
        },
        {
          "indexed": false,
          "internalType": "uint256",
          "name": "amount",
          "type": "uint256"
        },
        {
          "indexed": false,
          "internalType": "uint256",
          "name": "currentTotal",
          "type": "uint256"
        }
      ],
      "name": "FundingReceived",
      "type": "event"
    },
    {
      "constant": true,
      "inputs": [],
      "name": "amountGoal",
      "outputs": [
        {
          "internalType": "uint256",
          "name": "",
          "type": "uint256"
        }
      ],
      "payable": false,
      "stateMutability": "view",
      "type": "function"
    },
    {
      "constant": true,
      "inputs": [],
      "name": "completeAt",
      "outputs": [
        {
          "internalType": "uint256",
          "name": "",
          "type": "uint256"
        }
      ],
      "payable": false,
      "stateMutability": "view",
      "type": "function"
    },
    {
      "constant": true,
      "inputs": [
        {
          "internalType": "address",
          "name": "",
          "type": "address"
        }
      ],
      "name": "contributions",
      "outputs": [
        {
          "internalType": "uint256",
          "name": "",
          "type": "uint256"
        }
      ],
      "payable": false,
      "stateMutability": "view",
      "type": "function"
    },
    {
      "constant": true,
      "inputs": [],
      "name": "creator",
      "outputs": [
        {
          "internalType": "address payable",
          "name": "",
          "type": "address"
        }
      ],
      "payable": false,
      "stateMutability": "view",
      "type": "function"
    },
    {
      "constant": true,
      "inputs": [],
      "name": "currentBalance",
      "outputs": [
        {
          "internalType": "uint256",
          "name": "",
          "type": "uint256"
        }
      ],
      "payable": false,
      "stateMutability": "view",
      "type": "function"
    },
    {
      "constant": true,
      "inputs": [],
      "name": "description",
      "outputs": [
        {
          "internalType": "string",
          "name": "",
          "type": "string"
        }
      ],
      "payable": false,
      "stateMutability": "view",
      "type": "function"
    },
    {
      "constant": true,
      "inputs": [],
      "name": "image",
      "outputs": [
        {
          "internalType": "string",
          "name": "",
          "type": "string"
        }
      ],
      "payable": false,
      "stateMutability": "view",
      "type": "function"
    },
    {
      "constant": true,
      "inputs": [],
      "name": "minInvestment",
      "outputs": [
        {
          "internalType": "uint256",
          "name": "",
          "type": "uint256"
        }
      ],
      "payable": false,
      "stateMutability": "view",
      "type": "function"
    },
    {
      "constant": true,
      "inputs": [],
      "name": "raiseBy",
      "outputs": [
        {
          "internalType": "uint256",
          "name": "",
          "type": "uint256"
        }
      ],
      "payable": false,
      "stateMutability": "view",
      "type": "function"
    },
    {
      "constant": true,
      "inputs": [],
      "name": "rentability",
      "outputs": [
        {
          "internalType": "uint256",
          "name": "",
          "type": "uint256"
        }
      ],
      "payable": false,
      "stateMutability": "view",
      "type": "function"
    },
    {
      "constant": true,
      "inputs": [],
      "name": "state",
      "outputs": [
        {
          "internalType": "enum Project.State",
          "name": "",
          "type": "uint8"
        }
      ],
      "payable": false,
      "stateMutability": "view",
      "type": "function"
    },
    {
      "constant": true,
      "inputs": [],
      "name": "title",
      "outputs": [
        {
          "internalType": "string",
          "name": "",
          "type": "string"
        }
      ],
      "payable": false,
      "stateMutability": "view",
      "type": "function"
    },
    {
      "constant": false,
      "inputs": [],
      "name": "contribute",
      "outputs": [],
      "payable": true,
      "stateMutability": "payable",
      "type": "function"
    },
    {
      "constant": false,
      "inputs": [],
      "name": "checkIfFundingCompleteOrExpired",
      "outputs": [],
      "payable": false,
      "stateMutability": "nonpayable",
      "type": "function"
    },
    {
      "constant": false,
      "inputs": [],
      "name": "getRefund",
      "outputs": [
        {
          "internalType": "bool",
          "name": "",
          "type": "bool"
        }
      ],
      "payable": false,
      "stateMutability": "nonpayable",
      "type": "function"
    },
    {
      "constant": true,
      "inputs": [],
      "name": "getDetails",
      "outputs": [
        {
          "internalType": "address payable",
          "name": "projectStarter",
          "type": "address"
        },
        {
          "internalType": "string",
          "name": "projectTitle",
          "type": "string"
        },
        {
          "internalType": "string",
          "name": "projectDesc",
          "type": "string"
        },
        {
          "internalType": "uint256",
          "name": "deadline",
          "type": "uint256"
        },
        {
          "internalType": "enum Project.State",
          "name": "currentState",
          "type": "uint8"
        },
        {
          "internalType": "uint256",
          "name": "currentAmount",
          "type": "uint256"
        },
        {
          "internalType": "uint256",
          "name": "goalAmount",
          "type": "uint256"
        },
        {
          "internalType": "string",
          "name": "projectImage",
          "type": "string"
        },
        {
          "internalType": "uint256",
          "name": "projectRentability",
          "type": "uint256"
        },
        {
          "internalType": "uint256",
          "name": "minimalInvestment",
          "type": "uint256"
        }
      ],
      "payable": false,
      "stateMutability": "view",
      "type": "function"
    }
  ],
  "bytecode": "0x60806040526000600a60006101000a81548160ff021916908360028111156200002457fe5b02179055503480156200003657600080fd5b50604051620014f2380380620014f283398181016040526101008110156200005d57600080fd5b8101908080519060200190929190805160405193929190846401000000008211156200008857600080fd5b838201915060208201858111156200009f57600080fd5b8251866001820283011164010000000082111715620000bd57600080fd5b8083526020830192505050908051906020019080838360005b83811015620000f3578082015181840152602081019050620000d6565b50505050905090810190601f168015620001215780820380516001836020036101000a031916815260200191505b50604052602001805160405193929190846401000000008211156200014557600080fd5b838201915060208201858111156200015c57600080fd5b82518660018202830111640100000000821117156200017a57600080fd5b8083526020830192505050908051906020019080838360005b83811015620001b057808201518184015260208101905062000193565b50505050905090810190601f168015620001de5780820380516001836020036101000a031916815260200191505b506040526020018051906020019092919080519060200190929190805160405193929190846401000000008211156200021657600080fd5b838201915060208201858111156200022d57600080fd5b82518660018202830111640100000000821117156200024b57600080fd5b8083526020830192505050908051906020019080838360005b838110156200028157808201518184015260208101905062000264565b50505050905090810190601f168015620002af5780820380516001836020036101000a031916815260200191505b506040526020018051906020019092919080519060200190929190505050876000806101000a81548173ffffffffffffffffffffffffffffffffffffffff021916908373ffffffffffffffffffffffffffffffffffffffff1602179055508660059080519060200190620003259291906200038a565b5085600690805190602001906200033e9291906200038a565b508360018190555084600481905550600060038190555082600790805190602001906200036d9291906200038a565b508160088190555080600981905550505050505050505062000439565b828054600181600116156101000203166002900490600052602060002090601f016020900481019282601f10620003cd57805160ff1916838001178555620003fe565b82800160010185558215620003fe579182015b82811115620003fd578251825591602001919060010190620003e0565b5b5090506200040d919062000411565b5090565b6200043691905b808211156200043257600081600090555060010162000418565b5090565b90565b6110a980620004496000396000f3fe6080604052600436106100f35760003560e01c806386f325861161008a578063ce845d1d11610059578063ce845d1d1461042a578063d7bb99ba14610455578063f3ccaac01461045f578063fbbf93a0146104ef576100f3565b806386f32586146103805780638ac2c68014610397578063b2d5ae44146103c2578063c19d93fb146103f1576100f3565b80634a79d50c116100c65780634a79d50c1461020a5780634c4cea5a1461029a5780635fa42fbd146102c55780637284e416146102f0576100f3565b806302d05d3f146100f85780630785001c1461014f57806337f944cc1461017a57806342e94c90146101a5575b600080fd5b34801561010457600080fd5b5061010d6106c2565b604051808273ffffffffffffffffffffffffffffffffffffffff1673ffffffffffffffffffffffffffffffffffffffff16815260200191505060405180910390f35b34801561015b57600080fd5b506101646106e7565b6040518082815260200191505060405180910390f35b34801561018657600080fd5b5061018f6106ed565b6040518082815260200191505060405180910390f35b3480156101b157600080fd5b506101f4600480360360208110156101c857600080fd5b81019080803573ffffffffffffffffffffffffffffffffffffffff1690602001909291905050506106f3565b6040518082815260200191505060405180910390f35b34801561021657600080fd5b5061021f61070b565b6040518080602001828103825283818151815260200191508051906020019080838360005b8381101561025f578082015181840152602081019050610244565b50505050905090810190601f16801561028c5780820380516001836020036101000a031916815260200191505b509250505060405180910390f35b3480156102a657600080fd5b506102af6107a9565b6040518082815260200191505060405180910390f35b3480156102d157600080fd5b506102da6107af565b6040518082815260200191505060405180910390f35b3480156102fc57600080fd5b506103056107b5565b6040518080602001828103825283818151815260200191508051906020019080838360005b8381101561034557808201518184015260208101905061032a565b50505050905090810190601f1680156103725780820380516001836020036101000a031916815260200191505b509250505060405180910390f35b34801561038c57600080fd5b50610395610853565b005b3480156103a357600080fd5b506103ac6108c9565b6040518082815260200191505060405180910390f35b3480156103ce57600080fd5b506103d76108cf565b604051808215151515815260200191505060405180910390f35b3480156103fd57600080fd5b50610406610a85565b6040518082600281111561041657fe5b60ff16815260200191505060405180910390f35b34801561043657600080fd5b5061043f610a98565b6040518082815260200191505060405180910390f35b61045d610a9e565b005b34801561046b57600080fd5b50610474610c01565b6040518080602001828103825283818151815260200191508051906020019080838360005b838110156104b4578082015181840152602081019050610499565b50505050905090810190601f1680156104e15780820380516001836020036101000a031916815260200191505b509250505060405180910390f35b3480156104fb57600080fd5b50610504610c9f565b604051808b73ffffffffffffffffffffffffffffffffffffffff1673ffffffffffffffffffffffffffffffffffffffff16815260200180602001806020018a815260200189600281111561055457fe5b60ff1681526020018881526020018781526020018060200186815260200185815260200184810384528d818151815260200191508051906020019080838360005b838110156105b0578082015181840152602081019050610595565b50505050905090810190601f1680156105dd5780820380516001836020036101000a031916815260200191505b5084810383528c818151815260200191508051906020019080838360005b838110156106165780820151818401526020810190506105fb565b50505050905090810190601f1680156106435780820380516001836020036101000a031916815260200191505b50848103825287818151815260200191508051906020019080838360005b8381101561067c578082015181840152602081019050610661565b50505050905090810190601f1680156106a95780820380516001836020036101000a031916815260200191505b509d505050505050505050505050505060405180910390f35b6000809054906101000a900473ffffffffffffffffffffffffffffffffffffffff1681565b60015481565b60045481565b600b6020528060005260406000206000915090505481565b60058054600181600116156101000203166002900480601f0160208091040260200160405190810160405280929190818152602001828054600181600116156101000203166002900480156107a15780601f10610776576101008083540402835291602001916107a1565b820191906000526020600020905b81548152906001019060200180831161078457829003601f168201915b505050505081565b60025481565b60085481565b60068054600181600116156101000203166002900480601f01602080910402602001604051908101604052809291908181526020018280546001816001161561010002031660029004801561084b5780601f106108205761010080835404028352916020019161084b565b820191906000526020600020905b81548152906001019060200180831161082e57829003601f168201915b505050505081565b60015460035410610890576002600a60006101000a81548160ff0219169083600281111561087d57fe5b021790555061088a610ee1565b506108c0565b6004544211156108bf576001600a60006101000a81548160ff021916908360028111156108b957fe5b02179055505b5b42600281905550565b60095481565b600060018060028111156108df57fe5b600a60009054906101000a900460ff1660028111156108fa57fe5b1461090457600080fd5b6000600b60003373ffffffffffffffffffffffffffffffffffffffff1673ffffffffffffffffffffffffffffffffffffffff168152602001908152602001600020541161095057600080fd5b6000600b60003373ffffffffffffffffffffffffffffffffffffffff1673ffffffffffffffffffffffffffffffffffffffff1681526020019081526020016000205490506000600b60003373ffffffffffffffffffffffffffffffffffffffff1673ffffffffffffffffffffffffffffffffffffffff168152602001908152602001600020819055503373ffffffffffffffffffffffffffffffffffffffff166108fc829081150290604051600060405180830381858888f19350505050610a605780600b60003373ffffffffffffffffffffffffffffffffffffffff1673ffffffffffffffffffffffffffffffffffffffff168152602001908152602001600020819055506000925050610a81565b610a758160035461104390919063ffffffff16565b60038190555060019250505b5090565b600a60009054906101000a900460ff1681565b60035481565b6000806002811115610aac57fe5b600a60009054906101000a900460ff166002811115610ac757fe5b14610ad157600080fd5b610b2334600b60003373ffffffffffffffffffffffffffffffffffffffff1673ffffffffffffffffffffffffffffffffffffffff1681526020019081526020016000205461105a90919063ffffffff16565b600b60003373ffffffffffffffffffffffffffffffffffffffff1673ffffffffffffffffffffffffffffffffffffffff16815260200190815260200160002081905550610b7b3460035461105a90919063ffffffff16565b6003819055507f5cdc4ab8d637538ead6cc1904d4160343656c8c82bd266635cfd31ac008fffe03334600354604051808473ffffffffffffffffffffffffffffffffffffffff1673ffffffffffffffffffffffffffffffffffffffff168152602001838152602001828152602001935050505060405180910390a1610bfe610853565b50565b60078054600181600116156101000203166002900480601f016020809104026020016040519081016040528092919081815260200182805460018160011615610100020316600290048015610c975780601f10610c6c57610100808354040283529160200191610c97565b820191906000526020600020905b815481529060010190602001808311610c7a57829003601f168201915b505050505081565b600060608060008060008060606000806000809054906101000a900473ffffffffffffffffffffffffffffffffffffffff16995060058054600181600116156101000203166002900480601f016020809104026020016040519081016040528092919081815260200182805460018160011615610100020316600290048015610d695780601f10610d3e57610100808354040283529160200191610d69565b820191906000526020600020905b815481529060010190602001808311610d4c57829003601f168201915b5050505050985060068054600181600116156101000203166002900480601f016020809104026020016040519081016040528092919081815260200182805460018160011615610100020316600290048015610e065780601f10610ddb57610100808354040283529160200191610e06565b820191906000526020600020905b815481529060010190602001808311610de957829003601f168201915b505050505097506004549650600a60009054906101000a900460ff1695506003549450600154935060078054600181600116156101000203166002900480601f016020809104026020016040519081016040528092919081815260200182805460018160011615610100020316600290048015610ec45780601f10610e9957610100808354040283529160200191610ec4565b820191906000526020600020905b815481529060010190602001808311610ea757829003601f168201915b505050505092506008549150600954905090919293949596979899565b60006002806002811115610ef157fe5b600a60009054906101000a900460ff166002811115610f0c57fe5b14610f1657600080fd5b6000600354905060006003819055506000809054906101000a900473ffffffffffffffffffffffffffffffffffffffff1673ffffffffffffffffffffffffffffffffffffffff166108fc829081150290604051600060405180830381858888f193505050501561100e577f2f256415efc8561af8db667cb242964b19be7380f379ccdafaa0e54a6f6b70696000809054906101000a900473ffffffffffffffffffffffffffffffffffffffff16604051808273ffffffffffffffffffffffffffffffffffffffff1673ffffffffffffffffffffffffffffffffffffffff16815260200191505060405180910390a1600192505061103f565b806003819055506002600a60006101000a81548160ff0219169083600281111561103457fe5b021790555060009250505b5090565b60008282111561104f57fe5b818303905092915050565b600081830190508281101561106b57fe5b8090509291505056fea265627a7a723158202ec74e0002e5f9adf5cea830d688f69dbc746afd5f2e02f7babdc9ab241ee63a64736f6c63430005100032",
  "source": "\n// We will be using Solidity version 0.5.4\npragma solidity ^0.5.0;\n// Importing OpenZeppelin's SafeMath Implementation\n//import 'SafeMath.sol';\nimport \"./SafeMath.sol\";\n\n\ncontract Crowdfunding {\n    using SafeMath for uint256;\n\n    // List of existing projects\n    Project[] private projects;\n\n    // Event that will be emitted whenever a new project is started\n    event ProjectStarted(\n        address contractAddress,\n        address projectStarter,\n        string projectTitle,\n        string projectDesc,\n        uint256 deadline,\n        uint256 goalAmount,\n        string projectImage\n        //string projectRentability\n    );\n\n    /** @dev Function to start a new project.\n      * @param title Title of the project to be created\n      * @param description Brief description about the project\n      * @param durationInDays Project deadline in days\n      * @param amountToRaise Project goal in wei\n      * @param image Project Image\n      * @param rentability Project rentability\n      */\n    function startProject(\n        string calldata title,\n        string calldata description,\n        uint durationInDays,\n        uint amountToRaise,\n        string calldata image,\n        uint rentability,\n        uint minInvestment\n    ) external {\n        uint raiseUntil = block.timestamp.add(durationInDays.mul(1 days));\n        Project newProject = new Project(msg.sender, title, description, raiseUntil, amountToRaise, image, rentability, minInvestment);\n        projects.push(newProject);\n        emit ProjectStarted(\n            address(newProject),\n            msg.sender,\n            title,\n            description,\n            raiseUntil,\n            amountToRaise,\n            image\n            //rentability\n        );\n    }                                                                                                                                   \n\n    /** @dev Function to get all projects' contract addresses.\n      * @return A list of all projects' contract addreses\n      */\n    function returnAllProjects() external view returns(Project[] memory){\n        return projects;\n    }\n}\n\n\ncontract Project {\n    using SafeMath for uint256;\n    \n    // Data structures\n    enum State {\n        Fundraising,\n        Expired,\n        Successful\n    }\n\n    // State variables\n    address payable public creator;\n    uint public amountGoal; // required to reach at least this much, else everyone gets refund\n    uint public completeAt;\n    uint256 public currentBalance;\n    uint public raiseBy;\n    string public title;\n    string public description;\n    string public image;\n    uint public rentability;\n    uint public minInvestment;\n    State public state = State.Fundraising; // initialize on create\n    mapping (address => uint) public contributions;\n\n    // Event that will be emitted whenever funding will be received\n    event FundingReceived(address contributor, uint amount, uint currentTotal);\n    // Event that will be emitted whenever the project starter has received the funds\n    event CreatorPaid(address recipient);\n\n    // Modifier to check current state\n    modifier inState(State _state) {\n        require(state == _state);\n        _;\n    }\n\n    // Modifier to check if the function caller is the project creator\n    modifier isCreator() {\n        require(msg.sender == creator);\n        _;\n    }\n\n    constructor\n    (\n        address payable projectStarter,\n        string memory projectTitle,\n        string memory projectDesc,\n        uint fundRaisingDeadline,\n        uint goalAmount,\n        string memory projectImage,\n        uint projectRentability,\n        uint minimalInvestment\n    ) public {\n        creator = projectStarter;\n        title = projectTitle;\n        description = projectDesc;\n        amountGoal = goalAmount;\n        raiseBy = fundRaisingDeadline;\n        currentBalance = 0;\n        image = projectImage;\n        rentability = projectRentability;\n        minInvestment = minimalInvestment;\n    }\n\n    /** @dev Function to fund a certain project.\n      */\n    function contribute() external inState(State.Fundraising) payable {\n        //require(msg.sender != creator);\n        contributions[msg.sender] = contributions[msg.sender].add(msg.value);\n        currentBalance = currentBalance.add(msg.value);\n        emit FundingReceived(msg.sender, msg.value, currentBalance);\n        checkIfFundingCompleteOrExpired();\n    }\n\n    /** @dev Function to change the project state depending on conditions.\n      */\n    function checkIfFundingCompleteOrExpired() public {\n        if (currentBalance >= amountGoal) {\n            state = State.Successful;\n            payOut();\n        } else if (block.timestamp > raiseBy)  {\n            state = State.Expired;\n        }\n        completeAt = block.timestamp;\n    }\n\n    /** @dev Function to give the received funds to project starter.\n      */\n    function payOut() internal inState(State.Successful) returns (bool) {\n        uint256 totalRaised = currentBalance;\n        currentBalance = 0;\n\n        if (creator.send(totalRaised)) {\n            emit CreatorPaid(creator);\n            return true;\n        } else {\n            currentBalance = totalRaised;\n            state = State.Successful;\n        }\n\n        return false;\n    }\n\n    /** @dev Function to retrieve donated amount when a project expires.\n      */\n    function getRefund() public inState(State.Expired) returns (bool) {\n        require(contributions[msg.sender] > 0);\n\n        uint amountToRefund = contributions[msg.sender];\n        contributions[msg.sender] = 0;\n\n        if (!msg.sender.send(amountToRefund)) {\n            contributions[msg.sender] = amountToRefund;\n            return false;\n        } else {\n            currentBalance = currentBalance.sub(amountToRefund);\n        }\n\n        return true;\n    }\n\n   \n    function getDetails() public view returns \n    (\n        address payable projectStarter,\n        string memory projectTitle,\n        string memory projectDesc,\n        uint256 deadline,\n        State currentState,\n        uint256 currentAmount,\n        uint256 goalAmount,\n        string memory projectImage,\n        uint256 projectRentability,\n        uint256 minimalInvestment\n    ) {\n        projectStarter = creator;\n        projectTitle = title;\n        projectDesc = description;\n        deadline = raiseBy;\n        currentState = state;\n        currentAmount = currentBalance;\n        goalAmount = amountGoal;\n        projectImage = image;\n        projectRentability = rentability;\n        minimalInvestment = minInvestment;\n    }\n}",
  "sourcePath": "/Users/user1/Projects/blockchain/truffle/Crowdfunding-Project/contracts/Crowdfunding.sol",
  "compiler": {
    "name": "solc",
    "version": "0.5.16+commit.9c3226ce.Emscripten.clang"
  },
  "schemaVersion": "3.3.4",
  "updatedAt": "2021-04-04T03:55:58.574Z",
  "devdoc": {
    "methods": {
      "checkIfFundingCompleteOrExpired()": {
        "details": "Function to change the project state depending on conditions."
      },
      "contribute()": {
        "details": "Function to fund a certain project."
      },
      "getRefund()": {
        "details": "Function to retrieve donated amount when a project expires."
      }
    }
  },
  "userdoc": {
    "methods": {}
  }
}